:100000002EEF01F00000000000EF00F00000000003
:0A0010000000000000000000F3D71C
:10001C000F0E0C6E470E0D6E0D2EFED70C2EFCD750
:06002C00000000001200BC
:0A003200210E0D6E0D2EFED71200F8
:06003C00000000001200AC
:1000420049BE02D0819E01D0818E49BC02D0819CE2
:1000520001D0818C49BA02D0819A01D0818A49B8F3
:1000620002D0819801D081883EB002D0818001D037
:1000720081908182E2DF819249B602D0819E01D0D5
:10008200818E49B402D0819C01D0818C49B202D0C8
:10009200819A01D0818A49B002D0819801D08188A9
:1000A2003EB002D0818001D081908182C6DF8192F0
:0C00B2003EA002D0B2DF01D0BBDF120084
:0C00BE003E9048C049F0BEDF3E801200BA
:1000CA00FF0E316EFF0E326EFF0E336EFF0E346E70
:1000DA004A0E356E020E366E000E376E000E386E00
:1000EA00400E396E020E3A6E000E3B6E000E3C6EEA
:1000FA00FF0E3F6EFF0E406E000E416E000E426E06
:10010A00AC8A900EAB6E948E949C9EAA03D0AECF0E
:06011A0000F0FBD712000B
:100120000900F5CFE6FF0006FBE10106F9E1120048
:10013000939293909398939A939C939E819281909B
:10014000819E819C819A819869DF68DF67DF818A5F
:100150008188818273DF819261DF81826FDF81928A
:100160005DDF81826BDF819259DF8198818266DF5A
:10017000819254DF818262DF8192819A818E8182B5
:100180005DDF81924BDF819E8188818257DF819282
:100190008198818253DF819241DF81824FDF81929A
:1001A000818881824BDF819239DF8198818246DFAD
:1001B0008192818E818C818A818881823FDF8192C8
:0601C0002DDF3E8012005D
:1001C6000FD0800E436E19D0C00E436E16D0940E1B
:1001D600436E13D0D40E436E10D0800E436E0DD0F6
:1001E6004350010AEEE04350020AEEE04350030A90
:1001F600EEE04350040AEEE0F0D74404006E4350AC
:10020600002600C043F000C049F018DF3E90476A60
:1002160047504524E96E000E4620EA6EEE520BE08A
:1002260047504524E96E000E4620EA6EEECF48F0B0
:0A02360043DF472AEDD73E80120097
:0A024000000E9EBA010E006E1200BF
:10024A00AECF01F0ABA202D0AB98AB8801C000F0F0
:02025A00120090
:10025C00A4EC01F0926A936A956A94909492949C9F
:10026C00948E070EC16E5EDF010E496EE4DE0C0E3D
:10027C00496EE1DE010E436E020E446E250E456E94
:10028C00000E466E9ADF330EAF6EAC8418DF020E92
:10029C000B6E040E0C6EBA0E0D6E0D2EFED70C2EC0
:1002AC00FCD70B2EFAD70000C5DF005203E0C7DFE6
:1002BC0000C03DF03D50590A04E03D50790A01E080
:1002CC0005D082808292010E496EB5DE3D50520AF5
:1002DC0004E03D50720A01E005D082908282010E4A
:1002EC00496EA9DE3D504C0A04E03D506C0A01E019
:1002FC000BD082908292020E436E010E446E150E4C
:10030C00456E000E466E59DF340E0C6EF10E0D6EFE
:10031C000D2EFED70C2EFCD700000000C5D7FFD742
:1003480010EE15F01C0E006E010E016E2C0EF66EEE
:0E035800030EF76E000EF86E90EC00F012002F
:10032C0054657374204C4344204F7574707574007D
:0C033C0053657269616C20436F6D6D00A9
:020000040030CA
:0D000100220F0EFF0181FF0FC00FE00F4026
:00000001FF
